:100000005BC0C7C174C073C072C071C070C06FC024
:100010006EC06DC06CC06BC06AC069C068C067C08C
:1000200066C065C064C063C062C061C060C05FC0BC
:100030005EC05DC0040309041003700065006E001B
:10004000670075004D00430018034F006E00650007
:100050006B006500790062006F006100720064004F
:1000600012011001000000084242DF0500010102F8
:1000700000010902220001010080F40904000001CE
:10008000030000000921010100012223000705816E
:100090000308000A05010906A101050719E029E77F
:1000A00015002501750195088102950175082565E2
:1000B000190029658100C00011241FBECFEFD4E0D4
:1000C000DEBFCDBF11E0A0E0B1E0EEE9F6E002C096
:1000D00005900D92A230B107D9F711E0A2E0B1E08E
:1000E00001C01D92AF33B107E1F792D2D6C288CFDB
:1000F000E9E6F0E0808182608083E89A8BE4809377
:1001000015018AE58093140108951F93CF93DF931F
:1001100090912501935097FDA6C0209122018091D6
:1001200021018D3209F09DC0983009F09AC0CCE0D1
:10013000D0E0C21BD109C75DDE4F83EC809309017B
:100140008AE580930001109202018881807621F077
:10015000CE0137D2282F7CC09A811092120189815A
:10016000882321F41092130122E06CC0853019F429
:100170009093260166C0863009F04FC08B81813094
:1001800041F480E690E0909324018093230122E1E2
:1001900040C0823041F482E790E090932401809344
:1001A000230122E236C08330F9F48A81882341F4A6
:1001B00084E390E0909324018093230124E029C0FC
:1001C000813041F488E390E09093240180932301EF
:1001D00020E11FC08230E1F488E490E09093240194
:1001E0008093230128E115C0813241F484E890E036
:1001F000909324018093230129E00BC0823241F4C3
:1002000084E990E0909324018093230123E201C0CC
:1002100020E080E4809302011BC0883021F421E0BB
:1002200088E291E011C0893019F49093280109C047
:100230008A3011F421E006C08B3019F48BE48093EE
:10024000150120E082E191E0909324018093230145
:100250008F81882321F48E81821708F4282F209320
:100260000101109225018091000184FF49C0809115
:1002700001018F3F09F444C0182F893008F018E0BD
:10028000811B809301018091090198E8892780935F
:100290000901112341F12091230130912401809122
:1002A000020186FF0DC0AAE0B1E080E090E0F90114
:1002B000E80FF91FE491ED9301961817C1F708C0F4
:1002C000912FD901EAE0F1E08D9181939150E1F70E
:1002D0001150812F90E01F5F0196820F931F909322
:1002E0002401809323018AE091E0612F4ED0612F99
:1002F0006C5F6C3019F08FEF809301016093000107
:1003000094E189B1847131F49150D9F710922601AA
:1003100010922001DF91CF911F9108951F93DC016E
:10032000162F8091140184FF07C08091150198E871
:1003300089278093150103C08AE580931401912FCA
:10034000E6E1F1E08D91819391501916DCF386E19D
:1003500091E0612F1AD01C5F109314011F91089532
:10036000A82FB92F80E090E041E050EA609530E09E
:1003700009C02D9182279795879510F0842795279E
:10038000305EC8F36F5FA8F30895EADF8D939D9305
:100390000895CF93CFB7CF93DF93C3954C9BE9F7E5
:1003A0004C9B11C04C9B0FC04C9B0DC04C9B0BC079
:1003B0004C9B09C04C9B07C04C9B05C04C9B03C089
:1003C0004C9B01C083C06F93C0912201DD27C75DA4
:1003D000DE4F2F9320E400C065E04C9B03C02F91BB
:1003E0006F91DECF0F931F934F9345E55F9355E5D4
:1003F0003F933BE014E009B104712EC06A95C9F047
:100400003150D8F109B1047101130BC0089427953C
:10041000299320E4555500F46A9569F701E069B124
:100420000BC0102F66E02695299320E4555518F34C
:10043000E2CF0FEF69B10000162F455500F04040A4
:1004400066E014710030E2F221F0000009B104719D
:1004500003C009B10471A9F0011309C008942795DC
:1004600068F200C06A95A9F700E069B1E5CF102FE6
:1004700066E0269528F20000ECCF11E01CBB0027B7
:1004800019C03B503195C31BD04011E01CBB088103
:10049000033C09F10B34F9F0209120011981110F6F
:1004A0001213EDCF4A81441F093651F10D3211F07C
:1004B000013E29F7009327013F915F914F911F91D2
:1004C0000F912F916F91CCB3C0FD67CFDF91CF918A
:1004D000CFBFCF91189520912701222369F3109166
:1004E0002501112381F5343082F1309325012093C9
:1004F0002101109122013BE0311B3093220125C0E4
:10050000009125010130FCF40AE54F7049F4309167
:10051000000134FD1BC000930001C9E0D1E01AC006
:100520003091140134FD12C000931401C5E1D1E0F3
:1005300011C0052710E000C00BB919C0052710E055
:10054000221F00C01DC04AE502C032ED432FC4E1A6
:10055000D0E032E01AB114615C9A0BB11AB954E1DF
:1005600020E869E420FF05270BB92795179500C0FF
:1005700000001C3FF0F66695A8F7A1F720FF0527BD
:100580000BB92795179500001C3FC0F629913A95A5
:1005900041F70B7E10912601110F0BB9C651D040C7
:1005A00011F01093200111E01CBB00611AB11B7EF9
:1005B000402F4B7E55E05A95F1F70BB91AB94BB95C
:1005C0007BCFFC0185B191E0892785B986E091E078
:1005D0009093240180932301808180768032B1F44E
:1005E0008181813011F482E00895823041F488E005
:1005F00091E0909324018093230181E008958A3053
:1006000029F483818093080180E0089580E00895B3
:100610000F931F936DDD78941092060110920701DD
:100620002098579A11E004E070DD189B12C0809169
:100630000501882371F41093030180910401813036
:1006400019F41092050102C01093050110930401E2
:100650000DC01092030180910401882319F41092B7
:10066000050102C01093050110920401809105015B
:100670008823D1F280910301882319F000930701A8
:1006800002C0109207011092050186E091E062E03D
:0E06900045DE8BB180588BB9C7CFF894FFCFF1
:02069E005AFF01
:00000001FF
