:1000000057C096C170C06FC06EC06DC06CC06BC071
:100010006AC069C068C067C066C065C064C063C0AC
:1000200062C061C060C05FC05EC05DC05CC05BC0DC
:100030005AC059C0040309041003700065006E0023
:10004000670075004D00430018034F006E00650007
:100050006B006500790062006F006100720064004F
:1000600012011001000000084242DF0500010102F8
:10007000000109021B0001010080F40904000000D6
:1000800003000000092101010001222300050109EC
:1000900006A101050719E029E7150025017501955D
:1000A000088102950175082565190029658100C040
:1000B00011241FBECFEFD4E0DEBFCDBF11E0A0E022
:1000C000B1E0E6E9F5E002C005900D92A230B1077B
:1000D000D9F711E0A2E0B1E001C01D92A033B10751
:1000E000E1F754D256C28CCFE9E6F0E0808182601D
:1000F0008083E89A08951F93CF93DF939091160120
:10010000935097FDA1C020911301809112018D326F
:1001100009F098C0983009F095C0CCE0D0E0C21B3F
:10012000D109C65EDE4F83EC809306018AE5809399
:100130000001109202018881807621F0CE0103D265
:10014000282F77C09A8110920F018981882321F48A
:100150001092100122E067C0853019F490931701C6
:1001600061C0863009F04FC08B81813041F480E658
:1001700090E0909315018093140122E140C08230F9
:1001800041F482E790E090931501809314012BE1F4
:1001900036C08330F9F48A81882341F484E390E007
:1001A000909315018093140124E029C0813041F41B
:1001B00088E390E0909315018093140120E11FC023
:1001C0008230E1F488E490E090931501809314016B
:1001D00028E115C0813241F484E890E09093150144
:1001E0008093140129E00BC0823241F48DE890E045
:1001F000909315018093140123E201C020E080E474
:100200008093020116C0883021F421E089E191E059
:100210000CC0893019F49093190104C08A3011F48C
:1002200021E001C020E08FE091E0909315018093E0
:1002300014018F81882321F48E81821708F4282FDE
:1002400020930101109216018091000184FF49C0A2
:10025000809101018F3F09F444C0182F893008F0C4
:1002600018E0811B809301018091060198E889279D
:1002700080930601112341F1209114013091150161
:100280008091020186FF0DC0A7E0B1E080E090E020
:10029000F901E80FF91FE491ED9301961817C1F7E2
:1002A00008C0912FD901E7E0F1E08D918193915041
:1002B000E1F71150812F90E01F5F0196820F931F8D
:1002C000909315018093140187E091E0612F2CD069
:1002D000612F6C5F6C3019F08FEF80930101609398
:1002E000000194E189B1847131F49150D9F71092F1
:1002F000170110921101DF91CF911F910895A82F3E
:10030000B92F80E090E041E050EA609530E009C00C
:100310002D9182279795879510F084279527305E39
:10032000C8F36F5FA8F30895EADF8D939D93089556
:10033000CF93CFB7CF93DF93C3954C9BE9F74C9BFB
:1003400011C04C9B0FC04C9B0DC04C9B0BC04C9BD9
:1003500009C04C9B07C04C9B05C04C9B03C04C9BE9
:1003600001C081C06F93C0911301DD27C65EDE4FCF
:100370002F9320E400C065E04C9B03C02F916F9148
:10038000DECF0F931F934F9345E55F9355E53F9362
:100390003BE014E009B104712EC06A95C9F03150F8
:1003A000D8F109B1047101130BC008942795299362
:1003B00020E4555500F46A9569F701E069B10BC076
:1003C000102F66E02695299320E4555518F3E2CFC7
:1003D0000FEF69B10000162F455500F0404066E070
:1003E00014710030E2F221F0000009B1047103C081
:1003F00009B10471A9F0011309C00894279568F2A6
:1004000000C06A95A9F700E069B1E5CF102F66E05A
:10041000269528F20000ECCF11E01CBB002717C086
:100420003B503195C31BD04011E01CBB0881033CFD
:10043000F9F00B34E9F0209111011981110F121319
:10044000EDCF093651F10D3211F0013E39F700932D
:1004500018013F915F914F911F910F912F916F91D3
:10046000CCB3C0FD69CFDF91CF91CFBFCF911895AD
:1004700020911801222369F310911601112329F507
:1004800034302AF130931601209312011091130198
:100490003BE0311B309313011AC00091160101306B
:1004A000A4F40AE53091000134FD12C0009300016C
:1004B000C6E0D1E011C0052710E000C00BB919C09B
:1004C000052710E0221F00C01DC04AE502C032ED22
:1004D000432FC4E1D0E032E01AB114615C9A0BB151
:1004E0001AB954E120E869E420FF05270BB92795E4
:1004F000179500C000001C3FF0F66695A8F7A1F71D
:1005000020FF05270BB92795179500001C3FC0F663
:1005100029913A9541F70B7E10911701110F0BB9F4
:10052000C651D04011F01093110111E01CBB0061C5
:100530001AB11B7E402F4B7E55E05A95F1F70BB94F
:100540001AB94BB986CFFC0183E091E09093150175
:1005500080931401808180768032B1F48181813072
:1005600011F482E00895823041F485E091E09093A7
:1005700015018093140181E008958A3029F4838164
:100580008093050180E0089580E0089580E090E088
:060590000895F894FFCF6E
:020596005AFF0A
:00000001FF
