:100000005BC0C7C174C073C072C071C070C06FC024
:100010006EC06DC06CC06BC06AC069C068C067C08C
:1000200066C065C064C063C062C061C060C05FC0BC
:100030005EC05DC0040309041003700065006E001B
:10004000670075004D00430018034F006E00650007
:100050006B006500790062006F006100720064004F
:1000600012011001000000084242DF0500010102F8
:1000700000010902220001010080F40904000001CE
:10008000030000000921010100012223000705816E
:100090000308000A050C0901A10109E015FF25016B
:1000A00075029501810609E215002501750195018A
:1000B000810695058107C00011241FBECFEFD4E053
:1000C000DEBFCDBF11E0A0E0B1E0E4EAF6E002C09F
:1000D00005900D92A230B107D9F711E0A2E0B1E08E
:1000E00001C01D92AE33B107E1F790D2D9C288CFDB
:1000F000E9E6F0E0808182608083E89A8BE4809377
:1001000014018AE58093130108951F93CF93DF9321
:1001100090912401935097FDA6C0209121018091D8
:1001200020018D3209F09DC0983009F09AC0CCE0D2
:10013000D0E0C21BD109C85DDE4F83EC809308017B
:100140008AE580930001109202018881807621F077
:10015000CE0137D2282F7CC09A811092110189815B
:10016000882321F41092120122E06CC0853019F42A
:100170009093250166C0863009F04FC08B81813095
:1001800041F480E690E0909323018093220122E1E4
:1001900040C0823041F482E790E090932301809345
:1001A000220122E236C08330F9F48A81882341F4A7
:1001B00084E390E0909323018093220124E029C0FE
:1001C000813041F488E390E09093230180932201F1
:1001D00020E11FC08230E1F488E490E09093230195
:1001E0008093220128E115C0813241F484E890E037
:1001F000909323018093220129E00BC0823241F4C5
:1002000084E990E0909323018093220123E201C0CE
:1002100020E080E4809302011BC0883021F421E0BB
:1002200087E291E011C0893019F49093270109C049
:100230008A3011F421E006C08B3019F48BE48093EE
:10024000140120E081E191E0909323018093220149
:100250008F81882321F48E81821708F4282F209320
:100260000101109224018091000184FF49C0809116
:1002700001018F3F09F444C0182F893008F018E0BD
:10028000811B809301018091080198E88927809360
:100290000801112341F12091220130912301809125
:1002A000020186FF0DC0A9E0B1E080E090E0F90115
:1002B000E80FF91FE491ED9301961817C1F708C0F4
:1002C000912FD901E9E0F1E08D9181939150E1F70F
:1002D0001150812F90E01F5F0196820F931F909322
:1002E00023018093220189E091E0612F4ED0612F9C
:1002F0006C5F6C3019F08FEF809301016093000107
:1003000094E189B1847131F49150D9F710922501AB
:1003100010921F01DF91CF911F9108951F93DC016F
:10032000162F8091130184FF07C08091140198E873
:1003300089278093140103C08AE580931301912FCC
:10034000E5E1F1E08D91819391501916DCF385E19F
:1003500091E0612F1AD01C5F109313011F91089533
:10036000A82FB92F80E090E041E050EA609530E09E
:1003700009C02D9182279795879510F0842795279E
:10038000305EC8F36F5FA8F30895EADF8D939D9305
:100390000895CF93CFB7CF93DF93C3954C9BE9F7E5
:1003A0004C9B11C04C9B0FC04C9B0DC04C9B0BC079
:1003B0004C9B09C04C9B07C04C9B05C04C9B03C089
:1003C0004C9B01C083C06F93C0912101DD27C85DA4
:1003D000DE4F2F9320E400C065E04C9B03C02F91BB
:1003E0006F91DECF0F931F934F9345E55F9355E5D4
:1003F0003F933BE014E009B104712EC06A95C9F047
:100400003150D8F109B1047101130BC0089427953C
:10041000299320E4555500F46A9569F701E069B124
:100420000BC0102F66E02695299320E4555518F34C
:10043000E2CF0FEF69B10000162F455500F04040A4
:1004400066E014710030E2F221F0000009B104719D
:1004500003C009B10471A9F0011309C008942795DC
:1004600068F200C06A95A9F700E069B1E5CF102FE6
:1004700066E0269528F20000ECCF11E01CBB0027B7
:1004800019C03B503195C31BD04011E01CBB088103
:10049000033C09F10B34F9F020911F011981110F70
:1004A0001213EDCF4A81441F093651F10D3211F07C
:1004B000013E29F7009326013F915F914F911F91D3
:1004C0000F912F916F91CCB3C0FD67CFDF91CF918A
:1004D000CFBFCF91189520912601222369F3109167
:1004E0002401112381F5343082F1309324012093CB
:1004F0002001109121013BE0311B3093210125C0E7
:10050000009124010130FCF40AE54F7049F4309168
:10051000000134FD1BC000930001C8E0D1E01AC007
:100520003091130134FD12C000931301C4E1D1E0F6
:1005300011C0052710E000C00BB919C0052710E055
:10054000221F00C01DC04AE502C032ED432FC4E1A6
:10055000D0E032E01AB114615C9A0BB11AB954E1DF
:1005600020E869E420FF05270BB92795179500C0FF
:1005700000001C3FF0F66695A8F7A1F720FF0527BD
:100580000BB92795179500001C3FC0F629913A95A5
:1005900041F70B7E10912501110F0BB9C651D040C8
:1005A00011F010931F0111E01CBB00611AB11B7EFA
:1005B000402F4B7E55E05A95F1F70BB91AB94BB95C
:1005C0007BCFFC0185B191E0892785B986E091E078
:1005D0009093230180932201808180768032A1F460
:1005E0008181813091F0823041F487E091E09093F5
:1005F00023018093220181E008958A3029F48381C8
:100600008093070180E0089580E008950F931F9381
:100610006FDD7894109206012098579A85E085BD89
:1006200011E004E072DDA89B22C015BB189B12C02C
:1006300080910501882371F41093030180910401D6
:10064000813019F41092050102C010930501109336
:1006500004010DC01092030180910401882319F454
:100660001092050102C010930501109204018091BF
:1006700005018823B9F21092050115BB16BC8091C3
:100680000301882319F00093060102C010920601AD
:100690008BB180588BB986E091E061E03FDEC2CF3C
:0406A000F894FFCFFC
:0206A4005AFFFB
:00000001FF
